:020000040800F2
:1000000000A000206D120008B1120008B112000813
:10001000B1120008B1120008B1120008000000007F
:10002000000000000000000000000000B112000805
:10003000B112000800000000B1120008B11200085F
:10004000B1120008B1120008B1120008B112000884
:10005000B1120008B1120008B1120008B112000874
:10006000B1120008B1120008B1120008B112000864
:10007000B1120008B1120008B1120008B112000854
:10008000B1120008B1120008B1120008B112000844
:10009000B1120008B1120008B1120008B112000834
:1000A000B1120008B1120008B1120008B112000824
:1000B000B1120008B1120008B1120008B112000814
:1000C000B1120008B1120008B1120008B112000804
:1000D000B1120008B1120008B1120008B1120008F4
:1000E000B1120008B1120008B1120008B1120008E4
:1000F000B1120008B1120008B1120008B1120008D4
:10010000000000000000000000000000B112000824
:10011000B1120008B1120008B1120008B1120008B3
:10012000B1120008B1120008B1120008B1120008A3
:10013000B1120008B1120008000000000000000029
:10014000B1120008B1120008B1120008000000004E
:10015000000000000000000000000000000000009F
:100160000000000000000000B1120008B1120008F9
:10017000B1120008000000000000000000000000B4
:1001800000000000B112000880B48BB000AF7860AE
:1001900000233B620023FB610023BB6100237B61E2
:1001A00000233B6100237B620023FB600023BB60D4
:1001B000924B5B6803F00C033B623B6A042B07D055
:1001C000082B09D0002B30D17B688D4A1A6030E0B3
:1001D0007B688B4A1A602CE0884B5B6803F47013D1
:1001E000FB61864B5B6803F48033BB61FB699B0C4E
:1001F0000233FB61BB69002B05D1FB69814A02FB1D
:1002000003F37B620DE07D4BDB6A03F00F030133E8
:100210007B617B4A7B69B2FBF3F3FA6902FB03F370
:100220007B627B687A6A1A6003E07B68744A1A60B2
:1002300000BF724B5B6803F0F0033B623B6A1B0933
:100240003B62714A3B6A13441B78DBB2BB607B683C
:100250001A68BB68DA407B685A60684B5B6803F4D5
:10026000E0633B623B6A1B0A3B62674A3B6A13449A
:100270001B78DBB23B617B685A683B69DA407B687C
:100280009A605E4B5B6803F460533B623B6ADB0A37
:100290003B625D4A3B6A13441B78DBB2FB607B68C0
:1002A0005A68FB68DA407B68DA60544BDB6A03F417
:1002B000F8733B623B6A1B093B62544A3B6A32F863
:1002C00013309BB23B613B6903F01003002B06D057
:1002D0007A6A3B69B2FBF3F27B681A6103E07B68E0
:1002E0001A687B681A61454BDB6A03F478533B62FA
:1002F0003B6A5B0A3B62454A3B6A32F813309BB269
:100300003B613B6903F01003002B06D07A6A3B691E
:10031000B2FBF3F27B685A6103E07B681A687B6882
:100320005A61364B1B6B03F01003002B03D17B6823
:10033000334A9A6103E07B681A687B689A612F4BA5
:100340001B6B03F02003002B03D17B682C4ADA617E
:1003500003E07B681A687B68DA61284B1B6B03F447
:100360008073002B0DD07B681A687B6A9A4208D193
:10037000FA68BB689A4204D17B6A5A007B681A62A9
:1003800003E07B68DA687B681A621C4B1B6B03F422
:100390000073002B0DD07B681A687B6A9A4208D1E3
:1003A000FA68BB689A4204D17B6A5A007B685A6239
:1003B00003E07B68DA687B685A62104B1B6B03F0C2
:1003C0000303002B04D17B68DA687B689A6228E01B
:1003D0000A4B1B6B03F00303012B04D17B681A68E3
:1003E0007B689A621DE0054B1B6B03F00303022B35
:1003F0000ED17B684FF400429A6212E00010024076
:1004000000127A0000093D000000002010000020CA
:10041000604B1B6B03F00303032B02D17B685E4A26
:100420009A625C4B1B6B03F44033002B04D17B6856
:100430009A687B68DA6221E0564B1B6B03F4403309
:10044000B3F5803F04D17B681A687B68DA6215E0F7
:10045000504B1B6B03F44033B3F5003F04D17B6872
:100460004FF40042DA6209E04A4B1B6B03F440335D
:10047000B3F5403F02D17B68474ADA62454B1B6BBC
:1004800003F44023002B04D17B689A687B681A63CD
:1004900021E0404B1B6B03F44023B3F5802F04D1C4
:1004A0007B681A687B681A6315E03A4B1B6B03F490
:1004B0004023B3F5002F04D17B684FF400421A6348
:1004C00009E0344B1B6B03F44023B3F5402F02D1FA
:1004D0007B68314A1A632F4B1B6B03F44013002BCC
:1004E00004D17B689A687B685A6321E0294B1B6BB7
:1004F00003F44013B3F5801F04D17B681A687B684E
:100500005A6315E0234B1B6B03F44013B3F5001F34
:1005100004D17B684FF400425A6309E01D4B1B6B0A
:1005200003F44013B3F5401F02D17B681A4A5A63A3
:10053000184B1B6B03F44003002B04D17B689A68B3
:100540007B689A6321E0134B1B6B03F44003B3F504
:10055000800F04D17B681A687B689A6315E00D4BA5
:100560001B6B03F44003B3F5000F04D17B684FF419
:1005700000429A6309E0074B1B6B03F44003B3F599
:10058000400F02D17B68044A9A632C37BD465DF860
:10059000047B70470010024000127A0080B483B0E0
:1005A00000AF78600B46FB70FB78002B06D0094942
:1005B000084B5A697B6813434B6106E00549054BBC
:1005C0005A697B68DB4313404B610C37BD465DF8CD
:1005D000047B70470010024080B483B000AF7860A5
:1005E0000B46FB70FB78002B06D00949084B9A6933
:1005F0007B6813438B6106E00549054B9A697B686C
:10060000DB4313408B610C37BD465DF8047B7047BC
:100610000010024080B483B000AF78600B46FB70DE
:10062000FB78002B06D00949084BDA697B68134335
:10063000CB6106E00549054BDA697B68DB43134073
:10064000CB610C37BD465DF8047B7047001002405B
:1006500080B483B000AF78600B46FB70FB78002B52
:1006600006D00949084BDA687B681343CB6006E083
:100670000549054BDA687B68DB431340CB600C37D8
:10068000BD465DF8047B70470010024080B483B023
:1006900000AF78600B46FB70FB78002B06D0094951
:1006A000084B1A697B6813430B6106E00549054B4B
:1006B0001A697B68DB4313400B610C37BD465DF85C
:1006C000047B70470010024080B487B000AF7860B0
:1006D000396000237B6100233B610023FB60002322
:1006E0007B617CE07B69012202FA03F33B613B689A
:1006F0001A683B691340FB60FA683B699A426BD108
:100700003B681B79012B03D03B681B79022B34D14A
:100710007B689A687B695B00194603238B40DB4347
:100720001A407B689A607B689A683B685B791946D7
:100730007B695B0001FA03F31A437B689A607B686C
:100740009B889AB27B699BB2194601238B409BB26E
:10075000DB439BB213409AB27B689A807B689B888C
:100760009AB23B689B7919467B699BB201FA03F305
:100770009BB213439AB27B689A807B681A687B6944
:100780005B00194603238B40DB431A407B681A60E9
:100790007B681A683B681B7919467B695B0001FA24
:1007A00003F31A437B681A607B68DA687B699BB243
:1007B0005B00032101FA03F3DB431A407B68DA6034
:1007C0007B68DA683B68DB7919467B695B0001FA74
:1007D00003F31A437B68DA607B6901337B617B69D1
:1007E0000F2B7FF67FAF1C37BD465DF8047B70474B
:1007F00080B483B000AF78600B467B807A887B68DA
:100800009A610C37BD465DF8047B704780B483B0B5
:1008100000AF78600B467B807B687A881A850C373E
:10082000BD465DF8047B704780B485B000AF78604A
:100830000B467B8013467B700023FB600023BB606C
:100840007B787A8802F0070292009340FB607B88F5
:10085000DB089BB218467B88DB089BB21A467B6894
:10086000083253F822207B8803F007039B001946C7
:100870000F238B40DB4302EA03017B6800F108028F
:1008800043F822107B88DB089BB21A467B6808324B
:1008900053F82220FB681343BB607B88DB089BB2C4
:1008A0001A467B680832B96843F822101437BD46EF
:1008B0005DF8047B704700BF80B582B000AF0023B5
:1008C000FB8044233B7100F0BBF800F09BF800F084
:1008D00071FC46484FF40041FFF78AFF4448082165
:1008E000FFF794FF042000F01DFC00F08BF80520BA
:1008F00000F018FC00F086F8312045F6231100F0D6
:100900002DFC3220192100F029FC332040F614116F
:1009100000F024FC00F076F8364800F08FF900F083
:1009200071F800F06FF831484FF40041FFF76EFFA7
:1009300031484FF48051FFF769FF3B79184600F0CA
:10094000ABFB0346FB70FB789BB22C48194600F0CA
:10095000DDFD29484FF48051FFF74AFF284B1B78F3
:10096000002B0AD021484FF48041FFF741FF1F4878
:100970004FF40041FFF74AFF09E01C484FF4804163
:10098000FFF744FF19484FF40041FFF731FF002300
:100990007B710DE00023FB8002E0FB880133FB80CC
:1009A000FB8847F22F529342F7D97B7901337B7151
:1009B0007B79312BEED900F025F8114B1B7883F0B1
:1009C0000103DAB20E4B1A7000F01CF80B484F21ED
:1009D00000F09CFD09484B2100F098FD00F012F852
:1009E00006480A2100F092FDA2E700BF001000486F
:1009F0000008004830150008000400480038014095
:100A00003000002080B483B000AF0023FB800023BF
:100A10007B710DE00023FB8002E0FB880133FB804B
:100A2000FB8844F61F629342F7D97B7901337B71CF
:100A30007B79092BEED90C37BD465DF8047B7047F6
:100A400080B500AF00F006F800F0B2F800F040F812
:100A500080BD00BF80B582B000AF4FF438100121D7
:100A6000FFF79CFD4FF440433B6001233B710023A3
:100A7000BB7102237B710123FB713B46124819466F
:100A8000FFF722FE07233B6000233B710023BB716D
:100A900002237B710023FB713B460C481946FFF78C
:100AA00013FE08233B6001233B710023BB7102232B
:100AB0007B710123FB713B4604481946FFF704FE96
:100AC0000837BD4680BD00BF001000480008004840
:100AD00080B588B000AF4FF480400121FFF79AFD48
:100AE0004FF438100121FFF759FD4FF46043BB610B
:100AF00002233B770023BB770123FB7702237B771D
:100B000007F1180328481946FFF7DEFD26480D2196
:100B10000522FFF789FE24480E210522FFF784FEF7
:100B200021480F210522FFF77FFE4FF48053BB6160
:100B300001233B770023BB770123FB7702237B77DD
:100B400007F1180318481946FFF7BEFD174800F0D3
:100B50008DF80023BB804FF4E0633B8100237B8151
:100B60000023BB814FF40073FB8128233B820023C9
:100B70007B820723BB824FF48273FB803B1D0B48B3
:100B8000194600F0ADF809484FF4805100F052F9D1
:100B900005484FF48051FFF72BFE0448012100F077
:100BA00029F92037BD4680BD0004004800380040C8
:100BB00080B58CB000AF4FF480400121FFF70CFDF1
:100BC0004FF4C0633B6102233B7503237B75002315
:100BD000BB750023FB7507F110034FF090401946D9
:100BE000FFF772FD4FF0904009210722FFF71CFE2E
:100BF0004FF090400A210722FFF716FE3B461846A9
:100C000000F052FC3B460C48194600F029FC07F165
:100C10001803184600F008FC4FF4E133BB6107F1FC
:100C200018030548194600F045FB0348012100F070
:100C300051FC3037BD4680BD0038014080B582B0E0
:100C400000AF786008E07B685A1C7A601B789BB222
:100C50000548194600F05AFC7B681B78002BF2D13E
:100C60000837BD4680BD00BF0038014080B582B066
:100C700000AF78607B68174A93420AD14FF48050E6
:100C80000121FFF7E5FC4FF480500021FFF7E0FC65
:100C90001CE07B68104A93420AD14FF48040012146
:100CA000FFF7F4FC4FF480400021FFF7EFFC0DE06C
:100CB0007B680A4A934209D14FF400400121FFF7B3
:100CC000E5FC4FF400400021FFF7E0FC0837BD468B
:100CD00080BD00BF0030014000380040003C0040B3
:100CE00080B485B000AF786039600023FB813B6839
:100CF0005B88B3F5827F36D17B681B88FB81FB89DB
:100D000003F44153FB813B681A883B685B881343BB
:100D10009AB23B68D9883B681B890B4399B23B6800
:100D200058893B689B89034398B23B68DB8903433E
:100D30009BB20B439BB213439AB2FB891343FB81D3
:100D40007B68FA891A807B689B88FB81FB8923F486
:100D50007063FB813B689A88FB891343FB817B6846
:100D6000FA899A8035E07B689B88FB81FB8923F4B4
:100D70007063FB813B689A88FB891343FB817B6826
:100D8000FA899A807B681B88FB81FB8903F44153B5
:100D9000FB813B681A883B685B8813439AB23B68C7
:100DA000D9883B681B890B4399B23B6858893B68DB
:100DB0009B89034398B23B68DB8903439BB20B4397
:100DC0009BB213439AB2FB891343FB817B68FA8978
:100DD0001A807B689B8B9BB223F400639AB27B687A
:100DE0009A833B681A8A7B681A821437BD465DF87D
:100DF000047B704780B483B000AF78600B46FB7013
:100E0000FB78002B08D07B681B889BB243F0400323
:100E10009AB27B681A8007E07B681B889BB223F03C
:100E200040039AB27B681A800C37BD465DF8047B9C
:100E3000704700BF80B483B000AF78600B467B8002
:100E40007B689B889BB223F480539AB27B689A801C
:100E50007B689B889AB27B8813439AB27B689A809E
:100E60000C37BD465DF8047B704700BF80B485B089
:100E700000AF78600B46FB700023FB607B68FB6073
:100E8000FB680C33FB60FB68FA781A701437BD46B8
:100E90005DF8047B704700BF80B485B000AF786018
:100EA0000023FB607B68FB60FB680C33FB60FB6826
:100EB0001B78DBB218461437BD465DF8047B7047DB
:100EC00080B485B000AF78600B467B800023FB7355
:100ED0007B681B899AB27B8813409BB2002B02D09F
:100EE0000123FB7301E00023FB73FB7B18461437DF
:100EF000BD465DF8047B704780B500AF1A4A1A4BB7
:100F00001B6843F0010313601749174B5A68174BCE
:100F100013404B60144A144B1B6823F0847323F472
:100F200080331360104A104B1B6823F48023136036
:100F30000D4A0D4B5B6823F4FE0353600A4A0A4BCB
:100F4000DB6A23F00F03D3620749074B1A6B084B88
:100F500013400B63044B00229A6000F00DF8054B20
:100F60004FF000629A6080BD001002400CC07FF814
:100F7000CCFC00FF00ED00E080B483B000AF0023A4
:100F80007B6000233B60324A314B1B6843F4803363
:100F900013602F4B1B6803F400333B607B68013305
:100FA0007B603B68002B03D17B68B3F5A06FF0D169
:100FB000274B1B6803F40033002B02D001233B6056
:100FC00001E000233B603B68012B3CD1214B122206
:100FD0001A601F4A1E4B5B6853601D4A1C4B5B68BE
:100FE00053601B4A1A4B5B6843F480635360184A92
:100FF000174B5B6823F47C135360154A144B5B68F2
:1010000043F4E8135360124A114B1B6843F080739A
:10101000136000BF0E4B1B6803F00073002BF9D068
:101020000B4A0B4B5B6823F003035360084A084BE1
:101030005B6843F00203536000BF054B5B6803F03D
:101040000C03082BF9D10C37BD465DF8047B7047C3
:10105000001002400020024080B582B000AF0023A3
:10106000FB800C48542100F051FA00237B710DE005
:101070000023FB8002E0FB880133FB80FB8847F202
:101080002F529342F7D97B7901337B717B79312BD6
:10109000EED9E6E70038014080B582B000AF0346E4
:1010A000FB711E4B4FF480521A600BE01B4B1B6808
:1010B0005A1E1A490A60002B04D1FFF7CDFF0346E0
:1010C000DBB227E016480221FFF7FAFE0346042BA5
:1010D000ECD0FB7912481946FFF7C8FE0F4B4FF4CE
:1010E00080521A600BE00D4B1B685A1E0B490A60B8
:1010F000002B04D1FFF7B0FF0346DBB20AE008483B
:101100000121FFF7DDFE0346042BECD00448FFF776
:10111000C3FE034618460837BD4680BD2C0000209C
:101120000038004080B584B000AF0346FB71012356
:10113000FB7309484FF48051FFF768FBFB791846B1
:10114000FFF7AAFF04484FF48051FFF751FBFB7BE8
:1011500018461037BD4680BD0004004880B584B0F5
:1011600000AF03460A46FB711346BB800123FB73A5
:101170000F484FF48051FFF749FBFB791846FFF702
:101180008BFFBB881B0A9BB2DBB21846FFF784FFBC
:10119000BB88DBB21846FFF77FFF05484FF480514C
:1011A000FFF726FBFB7B18461037BD4680BD00BF0E
:1011B0000004004880B582B000AF00233B710023DB
:1011C000FB80382041F21131FFF7C8FF39204AF285
:1011D000F231FFF7C3FF3A2040F60901FFF7BEFFE7
:1011E0003B2040F60B21FFF7B9FF3C2040F60D41B4
:1011F000FFF7B4FF3D204821FFF7B0FF3E20482114
:10120000FFF7ACFF3F204FF4C071FFF7A7FF40206E
:1012100040F6CF71FFF7A2FF41204FF48471FFF732
:101220009DFF422040F24331FFF798FF4320802189
:10123000FFF794FF0620FFF775FF00237B710DE099
:101240000023FB8002E0FB880133FB80FB8847F230
:101250002F529342F7D97B7901337B717B79312B04
:10126000EED93B7918460837BD4680BD002103E022
:101270000A4B5B584350043109480A4B42189A42C2
:10128000F6D3094A02E0002342F8043B074B9A4296
:10129000F9D3FFF731FEFFF70FFB70473615000853
:1012A000000000203000002030000020340000202A
:1012B000FEE7000080B594B000AF7860396000238D
:1012C000FB640023BB6400237B647B681B6823F002
:1012D00001027B681A607B685B687B647B6C23F42B
:1012E00040537B643B689B687A6C13437B647B68E8
:1012F0007A6C5A607B681B687B647B6C23F4B05308
:1013000023F00C037B643B685A683B68DB681A4334
:101310003B681B6913437A6C13437B647B687A6C6C
:101320001A607B689B687B647B6C23F440737B64EE
:101330003B685B697A6C13437B647B687A6C9A6068
:1013400007F108031846FEF71FFF7B68324A9342F5
:1013500002D13B6BBB6416E07B68304A934202D1FA
:101360007B6BBB640FE07B682D4A934202D1BB6B61
:10137000BB6408E07B682B4A934202D1FB6BBB64E1
:1013800001E03B6CBB647B681B6803F40043002BEB
:1013900011D0BB6C5A003B681B68B2FBF3F3FB64D3
:1013A000BB6C5B003A681268B3FBF2F102FB01F21E
:1013B0009B1A7B640EE03B681B68BA6CB2FBF3F3CC
:1013C000FB643B681A68BB6CB3FBF2F102FB01F2F1
:1013D0009B1A7B643B681B685A087B6C9A4202D854
:1013E000FB6C0133FB647B681B6803F40043002B38
:1013F0000BD0FB6C03F00F035B087B64FA6C4FF6B9
:10140000F07313407A6C1343FB64FB6C9AB27B68F5
:101410009A815037BD4680BD0038014000440040ED
:1014200000480040004C004080B483B000AF7860BA
:101430007B684FF416521A607B6800225A607B6802
:1014400000229A607B680022DA607B680C221A61B5
:101450007B6800225A610C37BD465DF8047B7047FB
:1014600080B485B000AF786039600023FB607B6892
:101470005B68FB60FB6823F47063FB603B681A6881
:101480003B685B681A433B689B681A433B68DB68B0
:101490001343FA681343FB607B68FA685A60143799
:1014A000BD465DF8047B704780B483B000AF7860C0
:1014B0007B6800221A607B6800225A607B680022E9
:1014C0009A607B680022DA600C37BD465DF8047BC9
:1014D000704700BF80B483B000AF78600B46FB70EC
:1014E000FB78002B06D07B681B6843F001027B6809
:1014F0001A6005E07B681B6823F001027B681A60B4
:101500000C37BD465DF8047B704700BF80B483B0E4
:1015100000AF78600B467B807B88C3F308039AB2E8
:101520007B681A850C37BD465DF8047B704700BFA9
:0615300057464D0D0A00B4
:101536000000000001020304010203040607080973
:101546000000010002000400060008000A000C006A
:101556001000200040008000000100000010000084
:0400000508000000EF
:00000001FF
